{
  "_format": "hh-sol-artifact-1",
  "contractName": "SoulboundTicket",
  "sourceName": "contracts/SoulboundTicket.sol",
  "abi": [
    {
      "inputs": [],
      "stateMutability": "nonpayable",
      "type": "constructor"
    },
    {
      "inputs": [
        {
          "internalType": "address",
          "name": "sender",
          "type": "address"
        },
        {
          "internalType": "uint256",
          "name": "tokenId",
          "type": "uint256"
        },
        {
          "internalType": "address",
          "name": "owner",
          "type": "address"
        }
      ],
      "name": "ERC721IncorrectOwner",
      "type": "error"
    },
    {
      "inputs": [
        {
          "internalType": "address",
          "name": "operator",
          "type": "address"
        },
        {
          "internalType": "uint256",
          "name": "tokenId",
          "type": "uint256"
        }
      ],
      "name": "ERC721InsufficientApproval",
      "type": "error"
    },
    {
      "inputs": [
        {
          "internalType": "address",
          "name": "approver",
          "type": "address"
        }
      ],
      "name": "ERC721InvalidApprover",
      "type": "error"
    },
    {
      "inputs": [
        {
          "internalType": "address",
          "name": "operator",
          "type": "address"
        }
      ],
      "name": "ERC721InvalidOperator",
      "type": "error"
    },
    {
      "inputs": [
        {
          "internalType": "address",
          "name": "owner",
          "type": "address"
        }
      ],
      "name": "ERC721InvalidOwner",
      "type": "error"
    },
    {
      "inputs": [
        {
          "internalType": "address",
          "name": "receiver",
          "type": "address"
        }
      ],
      "name": "ERC721InvalidReceiver",
      "type": "error"
    },
    {
      "inputs": [
        {
          "internalType": "address",
          "name": "sender",
          "type": "address"
        }
      ],
      "name": "ERC721InvalidSender",
      "type": "error"
    },
    {
      "inputs": [
        {
          "internalType": "uint256",
          "name": "tokenId",
          "type": "uint256"
        }
      ],
      "name": "ERC721NonexistentToken",
      "type": "error"
    },
    {
      "inputs": [
        {
          "internalType": "address",
          "name": "owner",
          "type": "address"
        }
      ],
      "name": "OwnableInvalidOwner",
      "type": "error"
    },
    {
      "inputs": [
        {
          "internalType": "address",
          "name": "account",
          "type": "address"
        }
      ],
      "name": "OwnableUnauthorizedAccount",
      "type": "error"
    },
    {
      "anonymous": false,
      "inputs": [
        {
          "indexed": true,
          "internalType": "address",
          "name": "owner",
          "type": "address"
        },
        {
          "indexed": true,
          "internalType": "address",
          "name": "approved",
          "type": "address"
        },
        {
          "indexed": true,
          "internalType": "uint256",
          "name": "tokenId",
          "type": "uint256"
        }
      ],
      "name": "Approval",
      "type": "event"
    },
    {
      "anonymous": false,
      "inputs": [
        {
          "indexed": true,
          "internalType": "address",
          "name": "owner",
          "type": "address"
        },
        {
          "indexed": true,
          "internalType": "address",
          "name": "operator",
          "type": "address"
        },
        {
          "indexed": false,
          "internalType": "bool",
          "name": "approved",
          "type": "bool"
        }
      ],
      "name": "ApprovalForAll",
      "type": "event"
    },
    {
      "anonymous": false,
      "inputs": [
        {
          "indexed": true,
          "internalType": "address",
          "name": "previousOwner",
          "type": "address"
        },
        {
          "indexed": true,
          "internalType": "address",
          "name": "newOwner",
          "type": "address"
        }
      ],
      "name": "OwnershipTransferred",
      "type": "event"
    },
    {
      "anonymous": false,
      "inputs": [
        {
          "indexed": true,
          "internalType": "address",
          "name": "from",
          "type": "address"
        },
        {
          "indexed": true,
          "internalType": "address",
          "name": "to",
          "type": "address"
        },
        {
          "indexed": true,
          "internalType": "uint256",
          "name": "tokenId",
          "type": "uint256"
        }
      ],
      "name": "Transfer",
      "type": "event"
    },
    {
      "inputs": [],
      "name": "TICKET_PRICE",
      "outputs": [
        {
          "internalType": "uint256",
          "name": "",
          "type": "uint256"
        }
      ],
      "stateMutability": "view",
      "type": "function"
    },
    {
      "inputs": [
        {
          "internalType": "address",
          "name": "",
          "type": "address"
        },
        {
          "internalType": "uint256",
          "name": "",
          "type": "uint256"
        }
      ],
      "name": "approve",
      "outputs": [],
      "stateMutability": "pure",
      "type": "function"
    },
    {
      "inputs": [
        {
          "internalType": "address",
          "name": "owner",
          "type": "address"
        }
      ],
      "name": "balanceOf",
      "outputs": [
        {
          "internalType": "uint256",
          "name": "",
          "type": "uint256"
        }
      ],
      "stateMutability": "view",
      "type": "function"
    },
    {
      "inputs": [
        {
          "internalType": "uint256",
          "name": "tokenId",
          "type": "uint256"
        }
      ],
      "name": "getApproved",
      "outputs": [
        {
          "internalType": "address",
          "name": "",
          "type": "address"
        }
      ],
      "stateMutability": "view",
      "type": "function"
    },
    {
      "inputs": [
        {
          "internalType": "address",
          "name": "",
          "type": "address"
        },
        {
          "internalType": "uint256",
          "name": "",
          "type": "uint256"
        }
      ],
      "name": "hasMintedForConcert",
      "outputs": [
        {
          "internalType": "bool",
          "name": "",
          "type": "bool"
        }
      ],
      "stateMutability": "view",
      "type": "function"
    },
    {
      "inputs": [
        {
          "internalType": "address",
          "name": "owner",
          "type": "address"
        },
        {
          "internalType": "address",
          "name": "operator",
          "type": "address"
        }
      ],
      "name": "isApprovedForAll",
      "outputs": [
        {
          "internalType": "bool",
          "name": "",
          "type": "bool"
        }
      ],
      "stateMutability": "view",
      "type": "function"
    },
    {
      "inputs": [
        {
          "internalType": "uint256",
          "name": "tokenId",
          "type": "uint256"
        }
      ],
      "name": "markAsUsed",
      "outputs": [],
      "stateMutability": "nonpayable",
      "type": "function"
    },
    {
      "inputs": [
        {
          "internalType": "uint256",
          "name": "tokenId",
          "type": "uint256"
        }
      ],
      "name": "markFaceVerified",
      "outputs": [],
      "stateMutability": "nonpayable",
      "type": "function"
    },
    {
      "inputs": [
        {
          "internalType": "uint256",
          "name": "concertId",
          "type": "uint256"
        },
        {
          "internalType": "string",
          "name": "seatNumber",
          "type": "string"
        },
        {
          "internalType": "string",
          "name": "uri",
          "type": "string"
        }
      ],
      "name": "mintTicket",
      "outputs": [],
      "stateMutability": "payable",
      "type": "function"
    },
    {
      "inputs": [],
      "name": "name",
      "outputs": [
        {
          "internalType": "string",
          "name": "",
          "type": "string"
        }
      ],
      "stateMutability": "view",
      "type": "function"
    },
    {
      "inputs": [],
      "name": "nextTokenId",
      "outputs": [
        {
          "internalType": "uint256",
          "name": "",
          "type": "uint256"
        }
      ],
      "stateMutability": "view",
      "type": "function"
    },
    {
      "inputs": [],
      "name": "owner",
      "outputs": [
        {
          "internalType": "address",
          "name": "",
          "type": "address"
        }
      ],
      "stateMutability": "view",
      "type": "function"
    },
    {
      "inputs": [
        {
          "internalType": "uint256",
          "name": "tokenId",
          "type": "uint256"
        }
      ],
      "name": "ownerOf",
      "outputs": [
        {
          "internalType": "address",
          "name": "",
          "type": "address"
        }
      ],
      "stateMutability": "view",
      "type": "function"
    },
    {
      "inputs": [
        {
          "internalType": "uint256",
          "name": "tokenId",
          "type": "uint256"
        },
        {
          "internalType": "bytes32",
          "name": "hash",
          "type": "bytes32"
        }
      ],
      "name": "registerFaceHash",
      "outputs": [],
      "stateMutability": "nonpayable",
      "type": "function"
    },
    {
      "inputs": [],
      "name": "renounceOwnership",
      "outputs": [],
      "stateMutability": "nonpayable",
      "type": "function"
    },
    {
      "inputs": [
        {
          "internalType": "address",
          "name": "from",
          "type": "address"
        },
        {
          "internalType": "address",
          "name": "to",
          "type": "address"
        },
        {
          "internalType": "uint256",
          "name": "tokenId",
          "type": "uint256"
        }
      ],
      "name": "safeTransferFrom",
      "outputs": [],
      "stateMutability": "nonpayable",
      "type": "function"
    },
    {
      "inputs": [
        {
          "internalType": "address",
          "name": "",
          "type": "address"
        },
        {
          "internalType": "address",
          "name": "",
          "type": "address"
        },
        {
          "internalType": "uint256",
          "name": "",
          "type": "uint256"
        },
        {
          "internalType": "bytes",
          "name": "",
          "type": "bytes"
        }
      ],
      "name": "safeTransferFrom",
      "outputs": [],
      "stateMutability": "pure",
      "type": "function"
    },
    {
      "inputs": [
        {
          "internalType": "address",
          "name": "",
          "type": "address"
        },
        {
          "internalType": "bool",
          "name": "",
          "type": "bool"
        }
      ],
      "name": "setApprovalForAll",
      "outputs": [],
      "stateMutability": "pure",
      "type": "function"
    },
    {
      "inputs": [
        {
          "internalType": "bytes4",
          "name": "interfaceId",
          "type": "bytes4"
        }
      ],
      "name": "supportsInterface",
      "outputs": [
        {
          "internalType": "bool",
          "name": "",
          "type": "bool"
        }
      ],
      "stateMutability": "view",
      "type": "function"
    },
    {
      "inputs": [],
      "name": "symbol",
      "outputs": [
        {
          "internalType": "string",
          "name": "",
          "type": "string"
        }
      ],
      "stateMutability": "view",
      "type": "function"
    },
    {
      "inputs": [
        {
          "internalType": "uint256",
          "name": "",
          "type": "uint256"
        }
      ],
      "name": "tickets",
      "outputs": [
        {
          "internalType": "uint256",
          "name": "concertId",
          "type": "uint256"
        },
        {
          "internalType": "string",
          "name": "seatNumber",
          "type": "string"
        },
        {
          "internalType": "uint256",
          "name": "issuedAt",
          "type": "uint256"
        },
        {
          "internalType": "uint256",
          "name": "price",
          "type": "uint256"
        },
        {
          "internalType": "bool",
          "name": "isUsed",
          "type": "bool"
        },
        {
          "internalType": "bool",
          "name": "isFaceVerified",
          "type": "bool"
        },
        {
          "internalType": "bytes32",
          "name": "faceHash",
          "type": "bytes32"
        }
      ],
      "stateMutability": "view",
      "type": "function"
    },
    {
      "inputs": [
        {
          "internalType": "uint256",
          "name": "tokenId",
          "type": "uint256"
        }
      ],
      "name": "tokenURI",
      "outputs": [
        {
          "internalType": "string",
          "name": "",
          "type": "string"
        }
      ],
      "stateMutability": "view",
      "type": "function"
    },
    {
      "inputs": [
        {
          "internalType": "address",
          "name": "",
          "type": "address"
        },
        {
          "internalType": "address",
          "name": "",
          "type": "address"
        },
        {
          "internalType": "uint256",
          "name": "",
          "type": "uint256"
        }
      ],
      "name": "transferFrom",
      "outputs": [],
      "stateMutability": "pure",
      "type": "function"
    },
    {
      "inputs": [
        {
          "internalType": "address",
          "name": "newOwner",
          "type": "address"
        }
      ],
      "name": "transferOwnership",
      "outputs": [],
      "stateMutability": "nonpayable",
      "type": "function"
    }
  ],
  "bytecode": "0x6080604052600160075534801561001557600080fd5b50336040518060400160405280600881526020016714d0951a58dad95d60c21b8152506040518060400160405280600381526020016214d09560ea1b815250816000908161006391906101a1565b50600161007082826101a1565b5050506001600160a01b0381166100a157604051631e4fbdf760e01b81526000600482015260240160405180910390fd5b6100aa816100b0565b5061025f565b600680546001600160a01b038381166001600160a01b0319831681179093556040519116919082907f8be0079c531659141344cd1fd0a4f28419497f9722a3daafe3b4186f6b6457e090600090a35050565b634e487b7160e01b600052604160045260246000fd5b600181811c9082168061012c57607f821691505b60208210810361014c57634e487b7160e01b600052602260045260246000fd5b50919050565b601f82111561019c57806000526020600020601f840160051c810160208510156101795750805b601f840160051c820191505b818110156101995760008155600101610185565b50505b505050565b81516001600160401b038111156101ba576101ba610102565b6101ce816101c88454610118565b84610152565b6020601f82116001811461020257600083156101ea5750848201515b600019600385901b1c1916600184901b178455610199565b600084815260208120601f198516915b828110156102325787850151825560209485019460019092019101610212565b50848210156102505786840151600019600387901b60f8161c191681555b50505050600190811b01905550565b6119478061026e6000396000f3fe60806040526004361061014b5760003560e01c80636352211e116100b6578063a22cb4651161006f578063a22cb465146103ca578063b88d4fde146103ea578063c87b56dd1461040a578063e985e9c51461042a578063f037ee6c1461044a578063f2fde38b1461046a57600080fd5b80636352211e1461032c57806370a082311461034c578063715018a61461036c57806375794a3c146103815780638da5cb5b1461039757806395d89b41146103b557600080fd5b80632b7b7b3d116101085780632b7b7b3d1461024b578063399581ed1461025e57806342842e0e1461027e5780634ae4a1921461029e57806350b44712146102d95780635da6a0411461030c57600080fd5b806301ffc9a71461015057806306fdde0314610185578063081812fc146101a7578063095ea7b3146101df5780631a95f15f1461020157806323b872dd1461022b575b600080fd5b34801561015c57600080fd5b5061017061016b366004611361565b61048a565b60405190151581526020015b60405180910390f35b34801561019157600080fd5b5061019a6104dc565b60405161017c91906113cb565b3480156101b357600080fd5b506101c76101c23660046113de565b61056e565b6040516001600160a01b03909116815260200161017c565b3480156101eb57600080fd5b506101ff6101fa366004611413565b610597565b005b34801561020d57600080fd5b5061021d67016345785d8a000081565b60405190815260200161017c565b34801561023757600080fd5b506101ff61024636600461143d565b6105d8565b6101ff61025936600461152a565b610614565b34801561026a57600080fd5b506101ff61027936600461159c565b61080b565b34801561028a57600080fd5b506101ff61029936600461143d565b6108c3565b3480156102aa57600080fd5b506101706102b9366004611413565b600960209081526000928352604080842090915290825290205460ff1681565b3480156102e557600080fd5b506102f96102f43660046113de565b6108e3565b60405161017c97969594939291906115be565b34801561031857600080fd5b506101ff6103273660046113de565b6109ae565b34801561033857600080fd5b506101c76103473660046113de565b610aed565b34801561035857600080fd5b5061021d610367366004611603565b610af8565b34801561037857600080fd5b506101ff610b40565b34801561038d57600080fd5b5061021d60075481565b3480156103a357600080fd5b506006546001600160a01b03166101c7565b3480156103c157600080fd5b5061019a610b54565b3480156103d657600080fd5b506101ff6103e536600461161e565b610b63565b3480156103f657600080fd5b506101ff61040536600461165a565b610bab565b34801561041657600080fd5b5061019a6104253660046113de565b610bf3565b34801561043657600080fd5b506101706104453660046116d6565b610cc3565b34801561045657600080fd5b506101ff6104653660046113de565b610cf1565b34801561047657600080fd5b506101ff610485366004611603565b610dc6565b60006001600160e01b031982166380ac58cd60e01b14806104bb57506001600160e01b03198216635b5e139f60e01b145b806104d657506301ffc9a760e01b6001600160e01b03198316145b92915050565b6060600080546104eb90611709565b80601f016020809104026020016040519081016040528092919081815260200182805461051790611709565b80156105645780601f1061053957610100808354040283529160200191610564565b820191906000526020600020905b81548152906001019060200180831161054757829003601f168201915b5050505050905090565b600061057982610e04565b506000828152600460205260409020546001600160a01b03166104d6565b60405162461bcd60e51b8152602060048201526012602482015270a684a87441d91573d93b7041d76d11d56160771b60448201526064015b60405180910390fd5b60405162461bcd60e51b8152602060048201526012602482015270a684a87441d94109d90d4241d76d11d56160771b60448201526064016105cf565b67016345785d8a0000341461067c5760405162461bcd60e51b815260206004820152602860248201527ff09f92b820eca095ed9995ed959c20eab888ec95a1ec9d8420eca084ec86a1ed60448201526725663b212e3b26a560c21b60648201526084016105cf565b33600090815260096020908152604080832086845290915290205460ff16156106fc5760405162461bcd60e51b815260206004820152602c60248201527fe29b9420ec9db4ebafb820ed95b4eb8bb920eab3b5ec97b0ec9d84206d696e7460448201526b3b65a23b22ad7ae2e23ae2e960a21b60648201526084016105cf565b600780546000918261070d83611743565b91905055905061071d3382610e3d565b6000818152600a6020526040902061073583826117b1565b506040805160e0810182528581526020808201868152428385015234606084015260006080840181905260a0840181905260c084018190528581526008909252929020815181559151909190600182019061079090826117b1565b50604082810151600283015560608301516003830155608083015160048301805460a086015115156101000261ff00199315159390931661ffff199091161791909117905560c0909201516005909101553360009081526009602090815282822096825295909552909320805460ff19166001179055505050565b610813610e5b565b60008281526008602052604081206002015490036108435760405162461bcd60e51b81526004016105cf90611870565b600082815260086020526040902060050154156108ae5760405162461bcd60e51b8152602060048201526024808201527fe29b9420ec9db4ebafb820eb93b1eba19deb909c20ed95b4ec8b9cec9e85eb8b604482015263223ae2e960e21b60648201526084016105cf565b60009182526008602052604090912060050155565b6108de83838360405180602001604052806000815250610bab565b505050565b6008602052600090815260409020805460018201805491929161090590611709565b80601f016020809104026020016040519081016040528092919081815260200182805461093190611709565b801561097e5780601f106109535761010080835404028352916020019161097e565b820191906000526020600020905b81548152906001019060200180831161096157829003601f168201915b505050506002830154600384015460048501546005909501549394919390925060ff808316926101009004169087565b6109b6610e5b565b60008181526008602052604081206002015490036109e65760405162461bcd60e51b81526004016105cf90611870565b60008181526008602052604090206004015460ff1615610a545760405162461bcd60e51b8152602060048201526024808201527fe29b9420ec9db4ebafb820ec82acec9aa9eb909c20ed8bb0ecbc93ec9e85eb8b604482015263223ae2e960e21b60648201526084016105cf565b600081815260086020526040902060040154610100900460ff16610acf5760405162461bcd60e51b815260206004820152602c60248201527ff09fa791e2808df09f92bb20ec96bceab5b420ec9db8eca69dec9db420ed958460448201526b3b26a53b656a7ae2e23ae2e960a21b60648201526084016105cf565b6000908152600860205260409020600401805460ff19166001179055565b60006104d682610e04565b60006001600160a01b038216610b24576040516322718ad960e21b8152600060048201526024016105cf565b506001600160a01b031660009081526003602052604090205490565b610b48610e5b565b610b526000610e88565b565b6060600180546104eb90611709565b60405162461bcd60e51b815260206004820152601960248201527f5342543a20eca084ecb2b420ec8ab9ec9db820ebb688eab0800000000000000060448201526064016105cf565b60405162461bcd60e51b815260206004820152601960248201527f5342543a20ec9588eca08420eca084ec86a120ebb688eab0800000000000000060448201526064016105cf565b60008181526008602052604081206002015460609103610c255760405162461bcd60e51b81526004016105cf90611870565b6000828152600a602052604090208054610c3e90611709565b80601f0160208091040260200160405190810160405280929190818152602001828054610c6a90611709565b8015610cb75780601f10610c8c57610100808354040283529160200191610cb7565b820191906000526020600020905b815481529060010190602001808311610c9a57829003601f168201915b50505050509050919050565b6001600160a01b03918216600090815260056020908152604080832093909416825291909152205460ff1690565b610cf9610e5b565b6000818152600860205260408120600201549003610d295760405162461bcd60e51b81526004016105cf90611870565b600081815260086020526040902060050154610da65760405162461bcd60e51b815260206004820152603660248201527ff09f9aab20ec96bceab5b420ed95b4ec8b9ceab08020eba8bceca08020eb93b16044820152753ae8677ae4263b25ad3b256f083b656a7ae2e23ae2e960521b60648201526084016105cf565b6000908152600860205260409020600401805461ff001916610100179055565b610dce610e5b565b6001600160a01b038116610df857604051631e4fbdf760e01b8152600060048201526024016105cf565b610e0181610e88565b50565b6000818152600260205260408120546001600160a01b0316806104d657604051637e27328960e01b8152600481018490526024016105cf565b610e57828260405180602001604052806000815250610eda565b5050565b6006546001600160a01b03163314610b525760405163118cdaa760e01b81523360048201526024016105cf565b600680546001600160a01b038381166001600160a01b0319831681179093556040519116919082907f8be0079c531659141344cd1fd0a4f28419497f9722a3daafe3b4186f6b6457e090600090a35050565b610ee48383610ef2565b6108de336000858585610f57565b6001600160a01b038216610f1c57604051633250574960e11b8152600060048201526024016105cf565b6000610f2a83836000611082565b90506001600160a01b038116156108de576040516339e3563760e11b8152600060048201526024016105cf565b6001600160a01b0383163b1561107b57604051630a85bd0160e11b81526001600160a01b0384169063150b7a0290610f999088908890879087906004016118b7565b6020604051808303816000875af1925050508015610fd4575060408051601f3d908101601f19168201909252610fd1918101906118f4565b60015b61103d573d808015611002576040519150601f19603f3d011682016040523d82523d6000602084013e611007565b606091505b50805160000361103557604051633250574960e11b81526001600160a01b03851660048201526024016105cf565b805181602001fd5b6001600160e01b03198116630a85bd0160e11b1461107957604051633250574960e11b81526001600160a01b03851660048201526024016105cf565b505b5050505050565b6000828152600260205260408120546001600160a01b03908116908316156110af576110af81848661117b565b6001600160a01b038116156110ed576110cc6000856000806111df565b6001600160a01b038116600090815260036020526040902080546000190190555b6001600160a01b0385161561111c576001600160a01b0385166000908152600360205260409020805460010190555b60008481526002602052604080822080546001600160a01b0319166001600160a01b0389811691821790925591518793918516917fddf252ad1be2c89b69c2b068fc378daa952ba7f163c4a11628f55a4df523b3ef91a4949350505050565b6111868383836112e5565b6108de576001600160a01b0383166111b457604051637e27328960e01b8152600481018290526024016105cf565b60405163177e802f60e01b81526001600160a01b0383166004820152602481018290526044016105cf565b80806111f357506001600160a01b03821615155b156112b557600061120384610e04565b90506001600160a01b0383161580159061122f5750826001600160a01b0316816001600160a01b031614155b801561124257506112408184610cc3565b155b1561126b5760405163a9fbf51f60e01b81526001600160a01b03841660048201526024016105cf565b81156112b35783856001600160a01b0316826001600160a01b03167f8c5be1e5ebec7d5bd14f71427d1e84f3dd0314c0f7b2291e5b200ac8c7c3b92560405160405180910390a45b505b5050600090815260046020526040902080546001600160a01b0319166001600160a01b0392909216919091179055565b60006001600160a01b038316158015906113435750826001600160a01b0316846001600160a01b0316148061131f575061131f8484610cc3565b8061134357506000828152600460205260409020546001600160a01b038481169116145b949350505050565b6001600160e01b031981168114610e0157600080fd5b60006020828403121561137357600080fd5b813561137e8161134b565b9392505050565b6000815180845260005b818110156113ab5760208185018101518683018201520161138f565b506000602082860101526020601f19601f83011685010191505092915050565b60208152600061137e6020830184611385565b6000602082840312156113f057600080fd5b5035919050565b80356001600160a01b038116811461140e57600080fd5b919050565b6000806040838503121561142657600080fd5b61142f836113f7565b946020939093013593505050565b60008060006060848603121561145257600080fd5b61145b846113f7565b9250611469602085016113f7565b929592945050506040919091013590565b634e487b7160e01b600052604160045260246000fd5b60008067ffffffffffffffff8411156114ab576114ab61147a565b50604051601f19601f85018116603f0116810181811067ffffffffffffffff821117156114da576114da61147a565b6040528381529050808284018510156114f257600080fd5b83836020830137600060208583010152509392505050565b600082601f83011261151b57600080fd5b61137e83833560208501611490565b60008060006060848603121561153f57600080fd5b83359250602084013567ffffffffffffffff81111561155d57600080fd5b6115698682870161150a565b925050604084013567ffffffffffffffff81111561158657600080fd5b6115928682870161150a565b9150509250925092565b600080604083850312156115af57600080fd5b50508035926020909101359150565b87815260e0602082015260006115d760e0830189611385565b60408301979097525060608101949094529115156080840152151560a083015260c09091015292915050565b60006020828403121561161557600080fd5b61137e826113f7565b6000806040838503121561163157600080fd5b61163a836113f7565b91506020830135801515811461164f57600080fd5b809150509250929050565b6000806000806080858703121561167057600080fd5b611679856113f7565b9350611687602086016113f7565b925060408501359150606085013567ffffffffffffffff8111156116aa57600080fd5b8501601f810187136116bb57600080fd5b6116ca87823560208401611490565b91505092959194509250565b600080604083850312156116e957600080fd5b6116f2836113f7565b9150611700602084016113f7565b90509250929050565b600181811c9082168061171d57607f821691505b60208210810361173d57634e487b7160e01b600052602260045260246000fd5b50919050565b60006001820161176357634e487b7160e01b600052601160045260246000fd5b5060010190565b601f8211156108de57806000526020600020601f840160051c810160208510156117915750805b601f840160051c820191505b8181101561107b576000815560010161179d565b815167ffffffffffffffff8111156117cb576117cb61147a565b6117df816117d98454611709565b8461176a565b6020601f82116001811461181357600083156117fb5750848201515b600019600385901b1c1916600184901b17845561107b565b600084815260208120601f198516915b828110156118435787850151825560209485019460019092019101611823565b50848210156118615786840151600019600387901b60f8161c191681555b50505050600190811b01905550565b60208082526027908201527fe29d8c20eca1b4ec9eaced9598eca78020ec958aeb8a9420ed8bb0ecbc93ec9e604082015266217ae2e23ae2e960ca1b606082015260800190565b6001600160a01b03858116825284166020820152604081018390526080606082018190526000906118ea90830184611385565b9695505050505050565b60006020828403121561190657600080fd5b815161137e8161134b56fea26469706673582212209bbd97325db6194fa92dc516a8c1d7c93a19478dcfd8e143dcd5ecaac35cbf0864736f6c634300081c0033",
  "linkReferences": {},
  "deployedLinkReferences": {}
}