{
  "_format": "hh-sol-artifact-1",
  "contractName": "SoulboundTicket",
  "sourceName": "contracts/SoulboundTicket.sol",
  "abi": [
    {
      "inputs": [
        {
          "internalType": "address",
          "name": "_admin",
          "type": "address"
        }
      ],
      "stateMutability": "nonpayable",
      "type": "constructor"
    },
    {
      "inputs": [
        {
          "internalType": "address",
          "name": "sender",
          "type": "address"
        },
        {
          "internalType": "uint256",
          "name": "tokenId",
          "type": "uint256"
        },
        {
          "internalType": "address",
          "name": "owner",
          "type": "address"
        }
      ],
      "name": "ERC721IncorrectOwner",
      "type": "error"
    },
    {
      "inputs": [
        {
          "internalType": "address",
          "name": "operator",
          "type": "address"
        },
        {
          "internalType": "uint256",
          "name": "tokenId",
          "type": "uint256"
        }
      ],
      "name": "ERC721InsufficientApproval",
      "type": "error"
    },
    {
      "inputs": [
        {
          "internalType": "address",
          "name": "approver",
          "type": "address"
        }
      ],
      "name": "ERC721InvalidApprover",
      "type": "error"
    },
    {
      "inputs": [
        {
          "internalType": "address",
          "name": "operator",
          "type": "address"
        }
      ],
      "name": "ERC721InvalidOperator",
      "type": "error"
    },
    {
      "inputs": [
        {
          "internalType": "address",
          "name": "owner",
          "type": "address"
        }
      ],
      "name": "ERC721InvalidOwner",
      "type": "error"
    },
    {
      "inputs": [
        {
          "internalType": "address",
          "name": "receiver",
          "type": "address"
        }
      ],
      "name": "ERC721InvalidReceiver",
      "type": "error"
    },
    {
      "inputs": [
        {
          "internalType": "address",
          "name": "sender",
          "type": "address"
        }
      ],
      "name": "ERC721InvalidSender",
      "type": "error"
    },
    {
      "inputs": [
        {
          "internalType": "uint256",
          "name": "tokenId",
          "type": "uint256"
        }
      ],
      "name": "ERC721NonexistentToken",
      "type": "error"
    },
    {
      "inputs": [
        {
          "internalType": "address",
          "name": "owner",
          "type": "address"
        }
      ],
      "name": "OwnableInvalidOwner",
      "type": "error"
    },
    {
      "inputs": [
        {
          "internalType": "address",
          "name": "account",
          "type": "address"
        }
      ],
      "name": "OwnableUnauthorizedAccount",
      "type": "error"
    },
    {
      "anonymous": false,
      "inputs": [
        {
          "indexed": true,
          "internalType": "address",
          "name": "owner",
          "type": "address"
        },
        {
          "indexed": true,
          "internalType": "address",
          "name": "approved",
          "type": "address"
        },
        {
          "indexed": true,
          "internalType": "uint256",
          "name": "tokenId",
          "type": "uint256"
        }
      ],
      "name": "Approval",
      "type": "event"
    },
    {
      "anonymous": false,
      "inputs": [
        {
          "indexed": true,
          "internalType": "address",
          "name": "owner",
          "type": "address"
        },
        {
          "indexed": true,
          "internalType": "address",
          "name": "operator",
          "type": "address"
        },
        {
          "indexed": false,
          "internalType": "bool",
          "name": "approved",
          "type": "bool"
        }
      ],
      "name": "ApprovalForAll",
      "type": "event"
    },
    {
      "anonymous": false,
      "inputs": [
        {
          "indexed": true,
          "internalType": "address",
          "name": "previousOwner",
          "type": "address"
        },
        {
          "indexed": true,
          "internalType": "address",
          "name": "newOwner",
          "type": "address"
        }
      ],
      "name": "OwnershipTransferred",
      "type": "event"
    },
    {
      "anonymous": false,
      "inputs": [
        {
          "indexed": true,
          "internalType": "address",
          "name": "from",
          "type": "address"
        },
        {
          "indexed": true,
          "internalType": "address",
          "name": "to",
          "type": "address"
        },
        {
          "indexed": true,
          "internalType": "uint256",
          "name": "tokenId",
          "type": "uint256"
        }
      ],
      "name": "Transfer",
      "type": "event"
    },
    {
      "inputs": [],
      "name": "FEE_DENOMINATOR",
      "outputs": [
        {
          "internalType": "uint256",
          "name": "",
          "type": "uint256"
        }
      ],
      "stateMutability": "view",
      "type": "function"
    },
    {
      "inputs": [],
      "name": "FEE_NUMERATOR",
      "outputs": [
        {
          "internalType": "uint256",
          "name": "",
          "type": "uint256"
        }
      ],
      "stateMutability": "view",
      "type": "function"
    },
    {
      "inputs": [
        {
          "internalType": "address",
          "name": "",
          "type": "address"
        },
        {
          "internalType": "uint256",
          "name": "",
          "type": "uint256"
        }
      ],
      "name": "approve",
      "outputs": [],
      "stateMutability": "pure",
      "type": "function"
    },
    {
      "inputs": [
        {
          "internalType": "address",
          "name": "owner",
          "type": "address"
        }
      ],
      "name": "balanceOf",
      "outputs": [
        {
          "internalType": "uint256",
          "name": "",
          "type": "uint256"
        }
      ],
      "stateMutability": "view",
      "type": "function"
    },
    {
      "inputs": [
        {
          "internalType": "uint256",
          "name": "tokenId",
          "type": "uint256"
        }
      ],
      "name": "getApproved",
      "outputs": [
        {
          "internalType": "address",
          "name": "",
          "type": "address"
        }
      ],
      "stateMutability": "view",
      "type": "function"
    },
    {
      "inputs": [
        {
          "internalType": "address",
          "name": "",
          "type": "address"
        },
        {
          "internalType": "uint256",
          "name": "",
          "type": "uint256"
        }
      ],
      "name": "hasMintedForConcert",
      "outputs": [
        {
          "internalType": "bool",
          "name": "",
          "type": "bool"
        }
      ],
      "stateMutability": "view",
      "type": "function"
    },
    {
      "inputs": [
        {
          "internalType": "address",
          "name": "owner",
          "type": "address"
        },
        {
          "internalType": "address",
          "name": "operator",
          "type": "address"
        }
      ],
      "name": "isApprovedForAll",
      "outputs": [
        {
          "internalType": "bool",
          "name": "",
          "type": "bool"
        }
      ],
      "stateMutability": "view",
      "type": "function"
    },
    {
      "inputs": [
        {
          "internalType": "uint256",
          "name": "tokenId",
          "type": "uint256"
        }
      ],
      "name": "markAsUsed",
      "outputs": [],
      "stateMutability": "nonpayable",
      "type": "function"
    },
    {
      "inputs": [
        {
          "internalType": "uint256",
          "name": "tokenId",
          "type": "uint256"
        }
      ],
      "name": "markFaceVerified",
      "outputs": [],
      "stateMutability": "nonpayable",
      "type": "function"
    },
    {
      "inputs": [
        {
          "internalType": "uint256",
          "name": "concertId",
          "type": "uint256"
        },
        {
          "internalType": "string",
          "name": "seatNumber",
          "type": "string"
        },
        {
          "internalType": "string",
          "name": "uri",
          "type": "string"
        },
        {
          "internalType": "uint256",
          "name": "price",
          "type": "uint256"
        }
      ],
      "name": "mintTicket",
      "outputs": [],
      "stateMutability": "payable",
      "type": "function"
    },
    {
      "inputs": [],
      "name": "name",
      "outputs": [
        {
          "internalType": "string",
          "name": "",
          "type": "string"
        }
      ],
      "stateMutability": "view",
      "type": "function"
    },
    {
      "inputs": [],
      "name": "nextTokenId",
      "outputs": [
        {
          "internalType": "uint256",
          "name": "",
          "type": "uint256"
        }
      ],
      "stateMutability": "view",
      "type": "function"
    },
    {
      "inputs": [],
      "name": "owner",
      "outputs": [
        {
          "internalType": "address",
          "name": "",
          "type": "address"
        }
      ],
      "stateMutability": "view",
      "type": "function"
    },
    {
      "inputs": [
        {
          "internalType": "uint256",
          "name": "tokenId",
          "type": "uint256"
        }
      ],
      "name": "ownerOf",
      "outputs": [
        {
          "internalType": "address",
          "name": "",
          "type": "address"
        }
      ],
      "stateMutability": "view",
      "type": "function"
    },
    {
      "inputs": [
        {
          "internalType": "uint256",
          "name": "tokenId",
          "type": "uint256"
        },
        {
          "internalType": "bytes32",
          "name": "hash",
          "type": "bytes32"
        }
      ],
      "name": "registerFaceHash",
      "outputs": [],
      "stateMutability": "nonpayable",
      "type": "function"
    },
    {
      "inputs": [],
      "name": "renounceOwnership",
      "outputs": [],
      "stateMutability": "nonpayable",
      "type": "function"
    },
    {
      "inputs": [
        {
          "internalType": "address",
          "name": "from",
          "type": "address"
        },
        {
          "internalType": "address",
          "name": "to",
          "type": "address"
        },
        {
          "internalType": "uint256",
          "name": "tokenId",
          "type": "uint256"
        }
      ],
      "name": "safeTransferFrom",
      "outputs": [],
      "stateMutability": "nonpayable",
      "type": "function"
    },
    {
      "inputs": [
        {
          "internalType": "address",
          "name": "",
          "type": "address"
        },
        {
          "internalType": "address",
          "name": "",
          "type": "address"
        },
        {
          "internalType": "uint256",
          "name": "",
          "type": "uint256"
        },
        {
          "internalType": "bytes",
          "name": "",
          "type": "bytes"
        }
      ],
      "name": "safeTransferFrom",
      "outputs": [],
      "stateMutability": "pure",
      "type": "function"
    },
    {
      "inputs": [
        {
          "internalType": "address",
          "name": "",
          "type": "address"
        },
        {
          "internalType": "bool",
          "name": "",
          "type": "bool"
        }
      ],
      "name": "setApprovalForAll",
      "outputs": [],
      "stateMutability": "pure",
      "type": "function"
    },
    {
      "inputs": [
        {
          "internalType": "bytes4",
          "name": "interfaceId",
          "type": "bytes4"
        }
      ],
      "name": "supportsInterface",
      "outputs": [
        {
          "internalType": "bool",
          "name": "",
          "type": "bool"
        }
      ],
      "stateMutability": "view",
      "type": "function"
    },
    {
      "inputs": [],
      "name": "symbol",
      "outputs": [
        {
          "internalType": "string",
          "name": "",
          "type": "string"
        }
      ],
      "stateMutability": "view",
      "type": "function"
    },
    {
      "inputs": [
        {
          "internalType": "uint256",
          "name": "",
          "type": "uint256"
        }
      ],
      "name": "tickets",
      "outputs": [
        {
          "internalType": "uint256",
          "name": "concertId",
          "type": "uint256"
        },
        {
          "internalType": "string",
          "name": "seatNumber",
          "type": "string"
        },
        {
          "internalType": "uint256",
          "name": "issuedAt",
          "type": "uint256"
        },
        {
          "internalType": "uint256",
          "name": "price",
          "type": "uint256"
        },
        {
          "internalType": "bool",
          "name": "isUsed",
          "type": "bool"
        },
        {
          "internalType": "bool",
          "name": "isFaceVerified",
          "type": "bool"
        },
        {
          "internalType": "bytes32",
          "name": "faceHash",
          "type": "bytes32"
        }
      ],
      "stateMutability": "view",
      "type": "function"
    },
    {
      "inputs": [
        {
          "internalType": "uint256",
          "name": "tokenId",
          "type": "uint256"
        }
      ],
      "name": "tokenURI",
      "outputs": [
        {
          "internalType": "string",
          "name": "",
          "type": "string"
        }
      ],
      "stateMutability": "view",
      "type": "function"
    },
    {
      "inputs": [
        {
          "internalType": "address",
          "name": "",
          "type": "address"
        },
        {
          "internalType": "address",
          "name": "",
          "type": "address"
        },
        {
          "internalType": "uint256",
          "name": "",
          "type": "uint256"
        }
      ],
      "name": "transferFrom",
      "outputs": [],
      "stateMutability": "pure",
      "type": "function"
    },
    {
      "inputs": [
        {
          "internalType": "address",
          "name": "newOwner",
          "type": "address"
        }
      ],
      "name": "transferOwnership",
      "outputs": [],
      "stateMutability": "nonpayable",
      "type": "function"
    }
  ],
  "bytecode": "0x608060405234801561001057600080fd5b50604051611dec380380611dec83398101604081905261002f91610121565b806040518060400160405280600881526020016714d0951a58dad95d60c21b8152506040518060400160405280600381526020016214d09560ea1b815250816000908161007c91906101f0565b50600161008982826101f0565b5050506001600160a01b0381166100ba57604051631e4fbdf760e01b81526000600482015260240160405180910390fd5b6100c3816100cf565b505060016007556102ae565b600680546001600160a01b038381166001600160a01b0319831681179093556040519116919082907f8be0079c531659141344cd1fd0a4f28419497f9722a3daafe3b4186f6b6457e090600090a35050565b60006020828403121561013357600080fd5b81516001600160a01b038116811461014a57600080fd5b9392505050565b634e487b7160e01b600052604160045260246000fd5b600181811c9082168061017b57607f821691505b60208210810361019b57634e487b7160e01b600052602260045260246000fd5b50919050565b601f8211156101eb57806000526020600020601f840160051c810160208510156101c85750805b601f840160051c820191505b818110156101e857600081556001016101d4565b50505b505050565b81516001600160401b0381111561020957610209610151565b61021d816102178454610167565b846101a1565b6020601f82116001811461025157600083156102395750848201515b600019600385901b1c1916600184901b1784556101e8565b600084815260208120601f198516915b828110156102815787850151825560209485019460019092019101610261565b508482101561029f5786840151600019600387901b60f8161c191681555b50505050600190811b01905550565b611b2f806102bd6000396000f3fe6080604052600436106101665760003560e01c806370a08231116100d1578063a22cb4651161008a578063d73792a911610064578063d73792a914610434578063e985e9c51461044a578063f037ee6c1461046a578063f2fde38b1461048a57600080fd5b8063a22cb465146103de578063b88d4fde146103f9578063c87b56dd1461041457600080fd5b806370a082311461034d578063715018a61461036d57806375794a3c146103825780638c0479fd146103985780638da5cb5b146103ab57806395d89b41146103c957600080fd5b806341cd47bf1161012357806341cd47bf1461025c57806342842e0e1461027f5780634ae4a1921461029f57806350b44712146102da5780635da6a0411461030d5780636352211e1461032d57600080fd5b806301ffc9a71461016b57806306fdde03146101a0578063081812fc146101c2578063095ea7b3146101fa57806323b872dd1461021c578063399581ed1461023c575b600080fd5b34801561017757600080fd5b5061018b610186366004611409565b6104aa565b60405190151581526020015b60405180910390f35b3480156101ac57600080fd5b506101b56104fc565b6040516101979190611473565b3480156101ce57600080fd5b506101e26101dd366004611486565b61058e565b6040516001600160a01b039091168152602001610197565b34801561020657600080fd5b5061021a6102153660046114bb565b6105b7565b005b34801561022857600080fd5b5061021a6102373660046114e5565b6105fd565b34801561024857600080fd5b5061021a610257366004611522565b61063e565b34801561026857600080fd5b50610271600181565b604051908152602001610197565b34801561028b57600080fd5b5061021a61029a3660046114e5565b6106f6565b3480156102ab57600080fd5b5061018b6102ba3660046114bb565b600960209081526000928352604080842090915290825290205460ff1681565b3480156102e657600080fd5b506102fa6102f5366004611486565b610716565b6040516101979796959493929190611544565b34801561031957600080fd5b5061021a610328366004611486565b6107e1565b34801561033957600080fd5b506101e2610348366004611486565b610920565b34801561035957600080fd5b50610271610368366004611589565b61092b565b34801561037957600080fd5b5061021a610973565b34801561038e57600080fd5b5061027160075481565b61021a6103a63660046115ed565b610987565b3480156103b757600080fd5b506006546001600160a01b03166101e2565b3480156103d557600080fd5b506101b5610c8c565b3480156103ea57600080fd5b5061021a610215366004611674565b34801561040557600080fd5b5061021a6102373660046116c6565b34801561042057600080fd5b506101b561042f366004611486565b610c9b565b34801561044057600080fd5b506102716103e881565b34801561045657600080fd5b5061018b6104653660046117aa565b610d6b565b34801561047657600080fd5b5061021a610485366004611486565b610d99565b34801561049657600080fd5b5061021a6104a5366004611589565b610e6e565b60006001600160e01b031982166380ac58cd60e01b14806104db57506001600160e01b03198216635b5e139f60e01b145b806104f657506301ffc9a760e01b6001600160e01b03198316145b92915050565b60606000805461050b906117dd565b80601f0160208091040260200160405190810160405280929190818152602001828054610537906117dd565b80156105845780601f1061055957610100808354040283529160200191610584565b820191906000526020600020905b81548152906001019060200180831161056757829003601f168201915b5050505050905090565b600061059982610eac565b506000828152600460205260409020546001600160a01b03166104f6565b60405162461bcd60e51b815260206004820152601660248201527514d0950e88185c1c1c9bdd985b08191a5cd8589b195960521b60448201526064015b60405180910390fd5b60405162461bcd60e51b815260206004820152601660248201527514d0950e881d1c985b9cd9995c88191a5cd8589b195960521b60448201526064016105f4565b610646610ee5565b60008281526008602052604081206002015490036106765760405162461bcd60e51b81526004016105f490611817565b600082815260086020526040902060050154156106e15760405162461bcd60e51b8152602060048201526024808201527fe29b9420ec9db4ebafb820eb93b1eba19deb909c20ed95b4ec8b9cec9e85eb8b604482015263223ae2e960e21b60648201526084016105f4565b60009182526008602052604090912060050155565b610711838383604051806020016040528060008152506105fd565b505050565b60086020526000908152604090208054600182018054919291610738906117dd565b80601f0160208091040260200160405190810160405280929190818152602001828054610764906117dd565b80156107b15780601f10610786576101008083540402835291602001916107b1565b820191906000526020600020905b81548152906001019060200180831161079457829003601f168201915b505050506002830154600384015460048501546005909501549394919390925060ff808316926101009004169087565b6107e9610ee5565b60008181526008602052604081206002015490036108195760405162461bcd60e51b81526004016105f490611817565b60008181526008602052604090206004015460ff16156108875760405162461bcd60e51b8152602060048201526024808201527fe29b9420ec9db4ebafb820ec82acec9aa9eb909c20ed8bb0ecbc93ec9e85eb8b604482015263223ae2e960e21b60648201526084016105f4565b600081815260086020526040902060040154610100900460ff166109025760405162461bcd60e51b815260206004820152602c60248201527ff09fa791e2808df09f92bb20ec96bceab5b420ec9db8eca69dec9db420ed958460448201526b3b26a53b656a7ae2e23ae2e960a21b60648201526084016105f4565b6000908152600860205260409020600401805460ff19166001179055565b60006104f682610eac565b60006001600160a01b038216610957576040516322718ad960e21b8152600060048201526024016105f4565b506001600160a01b031660009081526003602052604090205490565b61097b610ee5565b6109856000610f12565b565b8034146109e75760405162461bcd60e51b815260206004820152602860248201527ff09f92b820eca095ed9995ed959c20eab888ec95a1ec9d8420eca084ec86a1ed60448201526725663b212e3b26a560c21b60648201526084016105f4565b33600090815260096020908152604080832089845290915290205460ff1615610a675760405162461bcd60e51b815260206004820152602c60248201527fe29b9420ec9db4ebafb820ed95b4eb8bb920eab3b5ec97b0ec9d84206d696e7460448201526b3b65a23b22ad7ae2e23ae2e960a21b60648201526084016105f4565b6007805460009182610a7883611874565b919050559050610a883382610f64565b6000818152600a60205260409020610aa18486836118d4565b5060006103e8610ab2600185611994565b610abc91906119ab565b90506000610ad26006546001600160a01b031690565b6001600160a01b03168260405160006040518083038185875af1925050503d8060008114610b1c576040519150601f19603f3d011682016040523d82523d6000602084013e610b21565b606091505b5050905080610b725760405162461bcd60e51b815260206004820152601760248201527fec8898ec8898eba38c20eca084ec86a120ec8ba4ed8ca800000000000000000060448201526064016105f4565b6040518060e001604052808a815260200189898080601f016020809104026020016040519081016040528093929190818152602001838380828437600092019190915250505090825250426020820152604001610bcf84876119cd565b815260006020808301829052604080840183905260609093018290528682526008815291902082518155908201516001820190610c0c90826119e0565b50604082810151600283015560608301516003830155608083015160048301805460a086015115156101000261ff00199315159390931661ffff199091161791909117905560c090920151600590910155336000908152600960209081528282209b82529a909a52909820805460ff191660011790555050505050505050565b60606001805461050b906117dd565b60008181526008602052604081206002015460609103610ccd5760405162461bcd60e51b81526004016105f490611817565b6000828152600a602052604090208054610ce6906117dd565b80601f0160208091040260200160405190810160405280929190818152602001828054610d12906117dd565b8015610d5f5780601f10610d3457610100808354040283529160200191610d5f565b820191906000526020600020905b815481529060010190602001808311610d4257829003601f168201915b50505050509050919050565b6001600160a01b03918216600090815260056020908152604080832093909416825291909152205460ff1690565b610da1610ee5565b6000818152600860205260408120600201549003610dd15760405162461bcd60e51b81526004016105f490611817565b600081815260086020526040902060050154610e4e5760405162461bcd60e51b815260206004820152603660248201527ff09f9aab20ec96bceab5b420ed95b4ec8b9ceab08020eba8bceca08020eb93b16044820152753ae8677ae4263b25ad3b256f083b656a7ae2e23ae2e960521b60648201526084016105f4565b6000908152600860205260409020600401805461ff001916610100179055565b610e76610ee5565b6001600160a01b038116610ea057604051631e4fbdf760e01b8152600060048201526024016105f4565b610ea981610f12565b50565b6000818152600260205260408120546001600160a01b0316806104f657604051637e27328960e01b8152600481018490526024016105f4565b6006546001600160a01b031633146109855760405163118cdaa760e01b81523360048201526024016105f4565b600680546001600160a01b038381166001600160a01b0319831681179093556040519116919082907f8be0079c531659141344cd1fd0a4f28419497f9722a3daafe3b4186f6b6457e090600090a35050565b610f7e828260405180602001604052806000815250610f82565b5050565b610f8c8383610f9a565b610711336000858585610fff565b6001600160a01b038216610fc457604051633250574960e11b8152600060048201526024016105f4565b6000610fd28383600061112a565b90506001600160a01b03811615610711576040516339e3563760e11b8152600060048201526024016105f4565b6001600160a01b0383163b1561112357604051630a85bd0160e11b81526001600160a01b0384169063150b7a0290611041908890889087908790600401611a9f565b6020604051808303816000875af192505050801561107c575060408051601f3d908101601f1916820190925261107991810190611adc565b60015b6110e5573d8080156110aa576040519150601f19603f3d011682016040523d82523d6000602084013e6110af565b606091505b5080516000036110dd57604051633250574960e11b81526001600160a01b03851660048201526024016105f4565b805181602001fd5b6001600160e01b03198116630a85bd0160e11b1461112157604051633250574960e11b81526001600160a01b03851660048201526024016105f4565b505b5050505050565b6000828152600260205260408120546001600160a01b039081169083161561115757611157818486611223565b6001600160a01b0381161561119557611174600085600080611287565b6001600160a01b038116600090815260036020526040902080546000190190555b6001600160a01b038516156111c4576001600160a01b0385166000908152600360205260409020805460010190555b60008481526002602052604080822080546001600160a01b0319166001600160a01b0389811691821790925591518793918516917fddf252ad1be2c89b69c2b068fc378daa952ba7f163c4a11628f55a4df523b3ef91a4949350505050565b61122e83838361138d565b610711576001600160a01b03831661125c57604051637e27328960e01b8152600481018290526024016105f4565b60405163177e802f60e01b81526001600160a01b0383166004820152602481018290526044016105f4565b808061129b57506001600160a01b03821615155b1561135d5760006112ab84610eac565b90506001600160a01b038316158015906112d75750826001600160a01b0316816001600160a01b031614155b80156112ea57506112e88184610d6b565b155b156113135760405163a9fbf51f60e01b81526001600160a01b03841660048201526024016105f4565b811561135b5783856001600160a01b0316826001600160a01b03167f8c5be1e5ebec7d5bd14f71427d1e84f3dd0314c0f7b2291e5b200ac8c7c3b92560405160405180910390a45b505b5050600090815260046020526040902080546001600160a01b0319166001600160a01b0392909216919091179055565b60006001600160a01b038316158015906113eb5750826001600160a01b0316846001600160a01b031614806113c757506113c78484610d6b565b806113eb57506000828152600460205260409020546001600160a01b038481169116145b949350505050565b6001600160e01b031981168114610ea957600080fd5b60006020828403121561141b57600080fd5b8135611426816113f3565b9392505050565b6000815180845260005b8181101561145357602081850181015186830182015201611437565b506000602082860101526020601f19601f83011685010191505092915050565b602081526000611426602083018461142d565b60006020828403121561149857600080fd5b5035919050565b80356001600160a01b03811681146114b657600080fd5b919050565b600080604083850312156114ce57600080fd5b6114d78361149f565b946020939093013593505050565b6000806000606084860312156114fa57600080fd5b6115038461149f565b92506115116020850161149f565b929592945050506040919091013590565b6000806040838503121561153557600080fd5b50508035926020909101359150565b87815260e06020820152600061155d60e083018961142d565b60408301979097525060608101949094529115156080840152151560a083015260c09091015292915050565b60006020828403121561159b57600080fd5b6114268261149f565b60008083601f8401126115b657600080fd5b50813567ffffffffffffffff8111156115ce57600080fd5b6020830191508360208285010111156115e657600080fd5b9250929050565b6000806000806000806080878903121561160657600080fd5b86359550602087013567ffffffffffffffff81111561162457600080fd5b61163089828a016115a4565b909650945050604087013567ffffffffffffffff81111561165057600080fd5b61165c89828a016115a4565b979a9699509497949695606090950135949350505050565b6000806040838503121561168757600080fd5b6116908361149f565b9150602083013580151581146116a557600080fd5b809150509250929050565b634e487b7160e01b600052604160045260246000fd5b600080600080608085870312156116dc57600080fd5b6116e58561149f565b93506116f36020860161149f565b925060408501359150606085013567ffffffffffffffff81111561171657600080fd5b8501601f8101871361172757600080fd5b803567ffffffffffffffff811115611741576117416116b0565b604051601f8201601f19908116603f0116810167ffffffffffffffff81118282101715611770576117706116b0565b60405281815282820160200189101561178857600080fd5b8160208401602083013760006020838301015280935050505092959194509250565b600080604083850312156117bd57600080fd5b6117c68361149f565b91506117d46020840161149f565b90509250929050565b600181811c908216806117f157607f821691505b60208210810361181157634e487b7160e01b600052602260045260246000fd5b50919050565b60208082526027908201527fe29d8c20eca1b4ec9eaced9598eca78020ec958aeb8a9420ed8bb0ecbc93ec9e604082015266217ae2e23ae2e960ca1b606082015260800190565b634e487b7160e01b600052601160045260246000fd5b6000600182016118865761188661185e565b5060010190565b601f82111561071157806000526020600020601f840160051c810160208510156118b45750805b601f840160051c820191505b8181101561112357600081556001016118c0565b67ffffffffffffffff8311156118ec576118ec6116b0565b611900836118fa83546117dd565b8361188d565b6000601f841160018114611934576000851561191c5750838201355b600019600387901b1c1916600186901b178355611123565b600083815260209020601f19861690835b828110156119655786850135825560209485019460019092019101611945565b50868210156119825760001960f88860031b161c19848701351681555b505060018560011b0183555050505050565b80820281158282048414176104f6576104f661185e565b6000826119c857634e487b7160e01b600052601260045260246000fd5b500490565b818103818111156104f6576104f661185e565b815167ffffffffffffffff8111156119fa576119fa6116b0565b611a0e81611a0884546117dd565b8461188d565b6020601f821160018114611a425760008315611a2a5750848201515b600019600385901b1c1916600184901b178455611123565b600084815260208120601f198516915b82811015611a725787850151825560209485019460019092019101611a52565b5084821015611a905786840151600019600387901b60f8161c191681555b50505050600190811b01905550565b6001600160a01b0385811682528416602082015260408101839052608060608201819052600090611ad29083018461142d565b9695505050505050565b600060208284031215611aee57600080fd5b8151611426816113f356fea2646970667358221220c10a81da67fc9d354f0100e76151f24e1c2eb3ea2c32d87f10015d27bea503a664736f6c634300081c0033",
  "linkReferences": {},
  "deployedLinkReferences": {}
}